{
  "_format": "hh-sol-artifact-1",
  "contractName": "NftGame",
  "sourceName": "contracts/nft-game.sol",
  "abi": [
    {
      "inputs": [
        {
          "internalType": "string[]",
          "name": "personaNames",
          "type": "string[]"
        },
        {
          "internalType": "string[]",
          "name": "personaImageURIs",
          "type": "string[]"
        },
        {
          "internalType": "uint256[]",
          "name": "personaHp",
          "type": "uint256[]"
        },
        {
          "internalType": "uint256[]",
          "name": "personaAttackDamage",
          "type": "uint256[]"
        },
        {
          "internalType": "uint256[]",
          "name": "personaDefense",
          "type": "uint256[]"
        },
        {
          "internalType": "uint256[]",
          "name": "personaEnergyLevel",
          "type": "uint256[]"
        },
        {
          "internalType": "string",
          "name": "bossName",
          "type": "string"
        },
        {
          "internalType": "string",
          "name": "bossImageURI",
          "type": "string"
        },
        {
          "internalType": "uint256",
          "name": "bossHp",
          "type": "uint256"
        },
        {
          "internalType": "uint256",
          "name": "bossAttackDamage",
          "type": "uint256"
        }
      ],
      "stateMutability": "nonpayable",
      "type": "constructor"
    },
    {
      "anonymous": false,
      "inputs": [
        {
          "indexed": true,
          "internalType": "address",
          "name": "owner",
          "type": "address"
        },
        {
          "indexed": true,
          "internalType": "address",
          "name": "approved",
          "type": "address"
        },
        {
          "indexed": true,
          "internalType": "uint256",
          "name": "tokenId",
          "type": "uint256"
        }
      ],
      "name": "Approval",
      "type": "event"
    },
    {
      "anonymous": false,
      "inputs": [
        {
          "indexed": true,
          "internalType": "address",
          "name": "owner",
          "type": "address"
        },
        {
          "indexed": true,
          "internalType": "address",
          "name": "operator",
          "type": "address"
        },
        {
          "indexed": false,
          "internalType": "bool",
          "name": "approved",
          "type": "bool"
        }
      ],
      "name": "ApprovalForAll",
      "type": "event"
    },
    {
      "anonymous": false,
      "inputs": [
        {
          "indexed": true,
          "internalType": "address",
          "name": "from",
          "type": "address"
        },
        {
          "indexed": true,
          "internalType": "address",
          "name": "to",
          "type": "address"
        },
        {
          "indexed": true,
          "internalType": "uint256",
          "name": "tokenId",
          "type": "uint256"
        }
      ],
      "name": "Transfer",
      "type": "event"
    },
    {
      "anonymous": false,
      "inputs": [
        {
          "indexed": false,
          "internalType": "address",
          "name": "sender",
          "type": "address"
        },
        {
          "indexed": false,
          "internalType": "uint256",
          "name": "newBossHp",
          "type": "uint256"
        },
        {
          "indexed": false,
          "internalType": "uint256",
          "name": "newPlayerHp",
          "type": "uint256"
        }
      ],
      "name": "attackSuccess",
      "type": "event"
    },
    {
      "anonymous": false,
      "inputs": [
        {
          "indexed": false,
          "internalType": "address",
          "name": "sender",
          "type": "address"
        },
        {
          "indexed": false,
          "internalType": "uint256",
          "name": "tokenId",
          "type": "uint256"
        },
        {
          "indexed": false,
          "internalType": "uint256",
          "name": "attributeIndex",
          "type": "uint256"
        }
      ],
      "name": "personaAttributeMinted",
      "type": "event"
    },
    {
      "inputs": [
        {
          "internalType": "address",
          "name": "to",
          "type": "address"
        },
        {
          "internalType": "uint256",
          "name": "tokenId",
          "type": "uint256"
        }
      ],
      "name": "approve",
      "outputs": [],
      "stateMutability": "nonpayable",
      "type": "function"
    },
    {
      "inputs": [],
      "name": "attackBossBaby",
      "outputs": [],
      "stateMutability": "nonpayable",
      "type": "function"
    },
    {
      "inputs": [
        {
          "internalType": "address",
          "name": "owner",
          "type": "address"
        }
      ],
      "name": "balanceOf",
      "outputs": [
        {
          "internalType": "uint256",
          "name": "",
          "type": "uint256"
        }
      ],
      "stateMutability": "view",
      "type": "function"
    },
    {
      "inputs": [],
      "name": "bossData",
      "outputs": [
        {
          "internalType": "string",
          "name": "name",
          "type": "string"
        },
        {
          "internalType": "string",
          "name": "imageURI",
          "type": "string"
        },
        {
          "internalType": "uint256",
          "name": "Hp",
          "type": "uint256"
        },
        {
          "internalType": "uint256",
          "name": "maxHp",
          "type": "uint256"
        },
        {
          "internalType": "uint256",
          "name": "attackDamage",
          "type": "uint256"
        }
      ],
      "stateMutability": "view",
      "type": "function"
    },
    {
      "inputs": [
        {
          "internalType": "uint256",
          "name": "tokenId",
          "type": "uint256"
        }
      ],
      "name": "getApproved",
      "outputs": [
        {
          "internalType": "address",
          "name": "",
          "type": "address"
        }
      ],
      "stateMutability": "view",
      "type": "function"
    },
    {
      "inputs": [],
      "name": "getBossData",
      "outputs": [
        {
          "components": [
            {
              "internalType": "string",
              "name": "name",
              "type": "string"
            },
            {
              "internalType": "string",
              "name": "imageURI",
              "type": "string"
            },
            {
              "internalType": "uint256",
              "name": "Hp",
              "type": "uint256"
            },
            {
              "internalType": "uint256",
              "name": "maxHp",
              "type": "uint256"
            },
            {
              "internalType": "uint256",
              "name": "attackDamage",
              "type": "uint256"
            }
          ],
          "internalType": "struct NftGame.BossData",
          "name": "",
          "type": "tuple"
        }
      ],
      "stateMutability": "view",
      "type": "function"
    },
    {
      "inputs": [
        {
          "internalType": "address",
          "name": "owner",
          "type": "address"
        },
        {
          "internalType": "address",
          "name": "operator",
          "type": "address"
        }
      ],
      "name": "isApprovedForAll",
      "outputs": [
        {
          "internalType": "bool",
          "name": "",
          "type": "bool"
        }
      ],
      "stateMutability": "view",
      "type": "function"
    },
    {
      "inputs": [
        {
          "internalType": "uint256",
          "name": "_attributeIndex",
          "type": "uint256"
        }
      ],
      "name": "mintNft",
      "outputs": [],
      "stateMutability": "nonpayable",
      "type": "function"
    },
    {
      "inputs": [],
      "name": "name",
      "outputs": [
        {
          "internalType": "string",
          "name": "",
          "type": "string"
        }
      ],
      "stateMutability": "view",
      "type": "function"
    },
    {
      "inputs": [
        {
          "internalType": "address",
          "name": "",
          "type": "address"
        }
      ],
      "name": "nftOwner",
      "outputs": [
        {
          "internalType": "uint256",
          "name": "",
          "type": "uint256"
        }
      ],
      "stateMutability": "view",
      "type": "function"
    },
    {
      "inputs": [
        {
          "internalType": "uint256",
          "name": "",
          "type": "uint256"
        }
      ],
      "name": "nftOwnerAttributes",
      "outputs": [
        {
          "internalType": "string",
          "name": "name",
          "type": "string"
        },
        {
          "internalType": "string",
          "name": "imageURI",
          "type": "string"
        },
        {
          "internalType": "uint256",
          "name": "attributeIndex",
          "type": "uint256"
        },
        {
          "internalType": "uint256",
          "name": "Hp",
          "type": "uint256"
        },
        {
          "internalType": "uint256",
          "name": "maxHp",
          "type": "uint256"
        },
        {
          "internalType": "uint256",
          "name": "attackDamage",
          "type": "uint256"
        },
        {
          "internalType": "uint256",
          "name": "defense",
          "type": "uint256"
        },
        {
          "internalType": "uint256",
          "name": "energyLevel",
          "type": "uint256"
        }
      ],
      "stateMutability": "view",
      "type": "function"
    },
    {
      "inputs": [
        {
          "internalType": "uint256",
          "name": "tokenId",
          "type": "uint256"
        }
      ],
      "name": "ownerOf",
      "outputs": [
        {
          "internalType": "address",
          "name": "",
          "type": "address"
        }
      ],
      "stateMutability": "view",
      "type": "function"
    },
    {
      "inputs": [],
      "name": "retrieveDefaultAttributes",
      "outputs": [
        {
          "components": [
            {
              "internalType": "string",
              "name": "name",
              "type": "string"
            },
            {
              "internalType": "string",
              "name": "imageURI",
              "type": "string"
            },
            {
              "internalType": "uint256",
              "name": "attributeIndex",
              "type": "uint256"
            },
            {
              "internalType": "uint256",
              "name": "Hp",
              "type": "uint256"
            },
            {
              "internalType": "uint256",
              "name": "maxHp",
              "type": "uint256"
            },
            {
              "internalType": "uint256",
              "name": "attackDamage",
              "type": "uint256"
            },
            {
              "internalType": "uint256",
              "name": "defense",
              "type": "uint256"
            },
            {
              "internalType": "uint256",
              "name": "energyLevel",
              "type": "uint256"
            }
          ],
          "internalType": "struct NftGame.PersonaAttributes[]",
          "name": "",
          "type": "tuple[]"
        }
      ],
      "stateMutability": "view",
      "type": "function"
    },
    {
      "inputs": [
        {
          "internalType": "address",
          "name": "from",
          "type": "address"
        },
        {
          "internalType": "address",
          "name": "to",
          "type": "address"
        },
        {
          "internalType": "uint256",
          "name": "tokenId",
          "type": "uint256"
        }
      ],
      "name": "safeTransferFrom",
      "outputs": [],
      "stateMutability": "nonpayable",
      "type": "function"
    },
    {
      "inputs": [
        {
          "internalType": "address",
          "name": "from",
          "type": "address"
        },
        {
          "internalType": "address",
          "name": "to",
          "type": "address"
        },
        {
          "internalType": "uint256",
          "name": "tokenId",
          "type": "uint256"
        },
        {
          "internalType": "bytes",
          "name": "_data",
          "type": "bytes"
        }
      ],
      "name": "safeTransferFrom",
      "outputs": [],
      "stateMutability": "nonpayable",
      "type": "function"
    },
    {
      "inputs": [
        {
          "internalType": "address",
          "name": "operator",
          "type": "address"
        },
        {
          "internalType": "bool",
          "name": "approved",
          "type": "bool"
        }
      ],
      "name": "setApprovalForAll",
      "outputs": [],
      "stateMutability": "nonpayable",
      "type": "function"
    },
    {
      "inputs": [
        {
          "internalType": "bytes4",
          "name": "interfaceId",
          "type": "bytes4"
        }
      ],
      "name": "supportsInterface",
      "outputs": [
        {
          "internalType": "bool",
          "name": "",
          "type": "bool"
        }
      ],
      "stateMutability": "view",
      "type": "function"
    },
    {
      "inputs": [],
      "name": "symbol",
      "outputs": [
        {
          "internalType": "string",
          "name": "",
          "type": "string"
        }
      ],
      "stateMutability": "view",
      "type": "function"
    },
    {
      "inputs": [
        {
          "internalType": "uint256",
          "name": "_tokenId",
          "type": "uint256"
        }
      ],
      "name": "tokenURI",
      "outputs": [
        {
          "internalType": "string",
          "name": "",
          "type": "string"
        }
      ],
      "stateMutability": "view",
      "type": "function"
    },
    {
      "inputs": [
        {
          "internalType": "address",
          "name": "from",
          "type": "address"
        },
        {
          "internalType": "address",
          "name": "to",
          "type": "address"
        },
        {
          "internalType": "uint256",
          "name": "tokenId",
          "type": "uint256"
        }
      ],
      "name": "transferFrom",
      "outputs": [],
      "stateMutability": "nonpayable",
      "type": "function"
    },
    {
      "inputs": [],
      "name": "userHasNft",
      "outputs": [
        {
          "components": [
            {
              "internalType": "string",
              "name": "name",
              "type": "string"
            },
            {
              "internalType": "string",
              "name": "imageURI",
              "type": "string"
            },
            {
              "internalType": "uint256",
              "name": "attributeIndex",
              "type": "uint256"
            },
            {
              "internalType": "uint256",
              "name": "Hp",
              "type": "uint256"
            },
            {
              "internalType": "uint256",
              "name": "maxHp",
              "type": "uint256"
            },
            {
              "internalType": "uint256",
              "name": "attackDamage",
              "type": "uint256"
            },
            {
              "internalType": "uint256",
              "name": "defense",
              "type": "uint256"
            },
            {
              "internalType": "uint256",
              "name": "energyLevel",
              "type": "uint256"
            }
          ],
          "internalType": "struct NftGame.PersonaAttributes",
          "name": "",
          "type": "tuple"
        }
      ],
      "stateMutability": "view",
      "type": "function"
    }
  ],
  "bytecode": "0x60806040523480156200001157600080fd5b5060405162005d3138038062005d31833981810160405281019062000037919062000bc0565b6040518060400160405280600981526020017f4865726f2047616d6500000000000000000000000000000000000000000000008152506040518060400160405280600481526020017f484f4745000000000000000000000000000000000000000000000000000000008152508160009080519060200190620000bb92919062000953565b508060019080519060200190620000d492919062000953565b5050506040518060a0016040528085815260200184815260200183815260200183815260200182815250600960008201518160000190805190602001906200011e92919062000953565b5060208201518160010190805190602001906200013d92919062000953565b50604082015181600201556060820151816003015560808201518160040155905050620002c060405180606001604052806029815260200162005cd760299139600960000180546200018f9062001004565b80601f0160208091040260200160405190810160405280929190818152602001828054620001bd9062001004565b80156200020e5780601f10620001e2576101008083540402835291602001916200020e565b820191906000526020600020905b815481529060010190602001808311620001f057829003601f168201915b505050505060096001018054620002259062001004565b80601f0160208091040260200160405190810160405280929190818152602001828054620002539062001004565b8015620002a45780601f106200027857610100808354040283529160200191620002a4565b820191906000526020600020905b8154815290600101906020018083116200028657829003601f168201915b5050505050600960020154620007bc60201b62001cdb1760201c565b60005b8a51811015620007945760076040518061010001604052808d848151811062000315577f4e487b7100000000000000000000000000000000000000000000000000000000600052603260045260246000fd5b602002602001015181526020018c84815181106200035c577f4e487b7100000000000000000000000000000000000000000000000000000000600052603260045260246000fd5b602002602001015181526020018381526020018b8481518110620003a9577f4e487b7100000000000000000000000000000000000000000000000000000000600052603260045260246000fd5b602002602001015181526020018b8481518110620003f0577f4e487b7100000000000000000000000000000000000000000000000000000000600052603260045260246000fd5b602002602001015181526020018a848151811062000437577f4e487b7100000000000000000000000000000000000000000000000000000000600052603260045260246000fd5b602002602001015181526020018984815181106200047e577f4e487b7100000000000000000000000000000000000000000000000000000000600052603260045260246000fd5b60200260200101518152602001888481518110620004c5577f4e487b7100000000000000000000000000000000000000000000000000000000600052603260045260246000fd5b6020026020010151815250908060018154018082558091505060019003906000526020600020906008020160009091909190915060008201518160000190805190602001906200051792919062000953565b5060208201518160010190805190602001906200053692919062000953565b5060408201518160020155606082015181600301556080820151816004015560a0820151816005015560c0820151816006015560e082015181600701555050600060078281548110620005b2577f4e487b7100000000000000000000000000000000000000000000000000000000600052603260045260246000fd5b906000526020600020906008020160405180610100016040529081600082018054620005de9062001004565b80601f01602080910402602001604051908101604052809291908181526020018280546200060c9062001004565b80156200065d5780601f1062000631576101008083540402835291602001916200065d565b820191906000526020600020905b8154815290600101906020018083116200063f57829003601f168201915b50505050508152602001600182018054620006789062001004565b80601f0160208091040260200160405190810160405280929190818152602001828054620006a69062001004565b8015620006f75780601f10620006cb57610100808354040283529160200191620006f7565b820191906000526020600020905b815481529060010190602001808311620006d957829003601f168201915b50505050508152602001600282015481526020016003820154815260200160048201548152602001600582015481526020016006820154815260200160078201548152505090506200077c60405180606001604052806031815260200162005d00603191398260000151836060015184602001516200086860201b62001d7d1760201c565b506001816200078c919062000f67565b9050620002c3565b50620007ac60066200091460201b62001e1f1760201c565b5050505050505050505062001128565b6200086284848484604051602401620007d9949392919062000dca565b6040516020818303038152906040527f9fd009f5000000000000000000000000000000000000000000000000000000007bffffffffffffffffffffffffffffffffffffffffffffffffffffffff19166020820180517bffffffffffffffffffffffffffffffffffffffffffffffffffffffff83818316178352505050506200092a60201b60201c565b50505050565b6200090e8484848460405160240162000885949392919062000e2c565b6040516020818303038152906040527f8d142cdd000000000000000000000000000000000000000000000000000000007bffffffffffffffffffffffffffffffffffffffffffffffffffffffff19166020820180517bffffffffffffffffffffffffffffffffffffffffffffffffffffffff83818316178352505050506200092a60201b60201c565b50505050565b6001816000016000828254019250508190555050565b60008151905060006a636f6e736f6c652e6c6f679050602083016000808483855afa5050505050565b828054620009619062001004565b90600052602060002090601f016020900481019282620009855760008555620009d1565b82601f10620009a057805160ff1916838001178555620009d1565b82800160010185558215620009d1579182015b82811115620009d0578251825591602001919060010190620009b3565b5b509050620009e09190620009e4565b5090565b5b80821115620009ff576000816000905550600101620009e5565b5090565b600062000a1a62000a148462000eb7565b62000e8e565b9050808382526020820190508260005b8581101562000a5e578151850162000a43888262000b7c565b84526020840193506020830192505060018101905062000a2a565b5050509392505050565b600062000a7f62000a798462000ee6565b62000e8e565b9050808382526020820190508285602086028201111562000a9f57600080fd5b60005b8581101562000ad3578162000ab8888262000ba9565b84526020840193506020830192505060018101905062000aa2565b5050509392505050565b600062000af462000aee8462000f15565b62000e8e565b90508281526020810184848401111562000b0d57600080fd5b62000b1a84828562000fce565b509392505050565b600082601f83011262000b3457600080fd5b815162000b4684826020860162000a03565b91505092915050565b600082601f83011262000b6157600080fd5b815162000b7384826020860162000a68565b91505092915050565b600082601f83011262000b8e57600080fd5b815162000ba084826020860162000add565b91505092915050565b60008151905062000bba816200110e565b92915050565b6000806000806000806000806000806101408b8d03121562000be157600080fd5b60008b015167ffffffffffffffff81111562000bfc57600080fd5b62000c0a8d828e0162000b22565b9a505060208b015167ffffffffffffffff81111562000c2857600080fd5b62000c368d828e0162000b22565b99505060408b015167ffffffffffffffff81111562000c5457600080fd5b62000c628d828e0162000b4f565b98505060608b015167ffffffffffffffff81111562000c8057600080fd5b62000c8e8d828e0162000b4f565b97505060808b015167ffffffffffffffff81111562000cac57600080fd5b62000cba8d828e0162000b4f565b96505060a08b015167ffffffffffffffff81111562000cd857600080fd5b62000ce68d828e0162000b4f565b95505060c08b015167ffffffffffffffff81111562000d0457600080fd5b62000d128d828e0162000b7c565b94505060e08b015167ffffffffffffffff81111562000d3057600080fd5b62000d3e8d828e0162000b7c565b93505061010062000d528d828e0162000ba9565b92505061012062000d668d828e0162000ba9565b9150509295989b9194979a5092959850565b600062000d858262000f4b565b62000d91818562000f56565b935062000da381856020860162000fce565b62000dae81620010fd565b840191505092915050565b62000dc48162000fc4565b82525050565b6000608082019050818103600083015262000de6818762000d78565b9050818103602083015262000dfc818662000d78565b9050818103604083015262000e12818562000d78565b905062000e23606083018462000db9565b95945050505050565b6000608082019050818103600083015262000e48818762000d78565b9050818103602083015262000e5e818662000d78565b905062000e6f604083018562000db9565b818103606083015262000e83818462000d78565b905095945050505050565b600062000e9a62000ead565b905062000ea882826200103a565b919050565b6000604051905090565b600067ffffffffffffffff82111562000ed55762000ed4620010ce565b5b602082029050602081019050919050565b600067ffffffffffffffff82111562000f045762000f03620010ce565b5b602082029050602081019050919050565b600067ffffffffffffffff82111562000f335762000f32620010ce565b5b62000f3e82620010fd565b9050602081019050919050565b600081519050919050565b600082825260208201905092915050565b600062000f748262000fc4565b915062000f818362000fc4565b9250827fffffffffffffffffffffffffffffffffffffffffffffffffffffffffffffffff0382111562000fb95762000fb862001070565b5b828201905092915050565b6000819050919050565b60005b8381101562000fee57808201518184015260208101905062000fd1565b8381111562000ffe576000848401525b50505050565b600060028204905060018216806200101d57607f821691505b602082108114156200103457620010336200109f565b5b50919050565b6200104582620010fd565b810181811067ffffffffffffffff82111715620010675762001066620010ce565b5b80604052505050565b7f4e487b7100000000000000000000000000000000000000000000000000000000600052601160045260246000fd5b7f4e487b7100000000000000000000000000000000000000000000000000000000600052602260045260246000fd5b7f4e487b7100000000000000000000000000000000000000000000000000000000600052604160045260246000fd5b6000601f19601f8301169050919050565b620011198162000fc4565b81146200112557600080fd5b50565b614b9f80620011386000396000f3fe608060405234801561001057600080fd5b50600436106101375760003560e01c806370a08231116100b8578063ad5ba1881161007c578063ad5ba18814610359578063b88d4fde14610377578063c87b56dd14610393578063d0a6ed68146103c3578063e985e9c5146103cd578063edbee17a146103fd57610137565b806370a08231146102b3578063781e4c58146102e357806395d89b4114610301578063a22cb4651461031f578063ac7927921461033b57610137565b806323b872dd116100ff57806323b872dd146101f257806342842e0e1461020e57806359a5f5a61461022a5780636352211e1461026157806368a70d0c1461029157610137565b806301ffc9a71461013c57806306fdde031461016c578063081812fc1461018a578063095ea7b3146101ba5780630d730acc146101d6575b600080fd5b610156600480360381019061015191906131ff565b61042d565b6040516101639190613ab2565b60405180910390f35b61017461050f565b6040516101819190613acd565b60405180910390f35b6101a4600480360381019061019f9190613251565b6105a1565b6040516101b191906139f2565b60405180910390f35b6101d460048036038101906101cf91906131c3565b610626565b005b6101f060048036038101906101eb9190613251565b61073e565b005b61020c600480360381019061020791906130bd565b610be9565b005b610228600480360381019061022391906130bd565b610c49565b005b610244600480360381019061023f9190613251565b610c69565b604051610258989796959493929190613c57565b60405180910390f35b61027b60048036038101906102769190613251565b610dc1565b60405161028891906139f2565b60405180910390f35b610299610e73565b6040516102aa959493929190613bf6565b60405180910390f35b6102cd60048036038101906102c89190613058565b610fa7565b6040516102da9190613f75565b60405180910390f35b6102eb61105f565b6040516102f89190613f31565b60405180910390f35b6103096111bb565b6040516103169190613acd565b60405180910390f35b61033960048036038101906103349190613187565b61124d565b005b610343611263565b6040516103509190613a90565b60405180910390f35b610361611423565b60405161036e9190613f53565b60405180910390f35b610391600480360381019061038c919061310c565b611610565b005b6103ad60048036038101906103a89190613251565b611672565b6040516103ba9190613acd565b60405180910390f35b6103cb6118a2565b005b6103e760048036038101906103e29190613081565b611c2f565b6040516103f49190613ab2565b60405180910390f35b61041760048036038101906104129190613058565b611cc3565b6040516104249190613f75565b60405180910390f35b60007f80ac58cd000000000000000000000000000000000000000000000000000000007bffffffffffffffffffffffffffffffffffffffffffffffffffffffff1916827bffffffffffffffffffffffffffffffffffffffffffffffffffffffff191614806104f857507f5b5e139f000000000000000000000000000000000000000000000000000000007bffffffffffffffffffffffffffffffffffffffffffffffffffffffff1916827bffffffffffffffffffffffffffffffffffffffffffffffffffffffff1916145b80610508575061050782611e35565b5b9050919050565b60606000805461051e9061423e565b80601f016020809104026020016040519081016040528092919081815260200182805461054a9061423e565b80156105975780601f1061056c57610100808354040283529160200191610597565b820191906000526020600020905b81548152906001019060200180831161057a57829003601f168201915b5050505050905090565b60006105ac82611e9f565b6105eb576040517f08c379a00000000000000000000000000000000000000000000000000000000081526004016105e290613eb1565b60405180910390fd5b6004600083815260200190815260200160002060009054906101000a900473ffffffffffffffffffffffffffffffffffffffff169050919050565b600061063182610dc1565b90508073ffffffffffffffffffffffffffffffffffffffff168373ffffffffffffffffffffffffffffffffffffffff1614156106a2576040517f08c379a000000000000000000000000000000000000000000000000000000000815260040161069990613ed1565b60405180910390fd5b8073ffffffffffffffffffffffffffffffffffffffff166106c1611f0b565b73ffffffffffffffffffffffffffffffffffffffff1614806106f057506106ef816106ea611f0b565b611c2f565b5b61072f576040517f08c379a000000000000000000000000000000000000000000000000000000000815260040161072690613e11565b60405180910390fd5b6107398383611f13565b505050565b600061074a6006611fcc565b90506107563382611fda565b6040518061010001604052806007848154811061079c577f4e487b7100000000000000000000000000000000000000000000000000000000600052603260045260246000fd5b906000526020600020906008020160000180546107b89061423e565b80601f01602080910402602001604051908101604052809291908181526020018280546107e49061423e565b80156108315780601f1061080657610100808354040283529160200191610831565b820191906000526020600020905b81548152906001019060200180831161081457829003601f168201915b5050505050815260200160078481548110610875577f4e487b7100000000000000000000000000000000000000000000000000000000600052603260045260246000fd5b906000526020600020906008020160010180546108919061423e565b80601f01602080910402602001604051908101604052809291908181526020018280546108bd9061423e565b801561090a5780601f106108df5761010080835404028352916020019161090a565b820191906000526020600020905b8154815290600101906020018083116108ed57829003601f168201915b5050505050815260200183815260200160078481548110610954577f4e487b7100000000000000000000000000000000000000000000000000000000600052603260045260246000fd5b9060005260206000209060080201600301548152602001600784815481106109a5577f4e487b7100000000000000000000000000000000000000000000000000000000600052603260045260246000fd5b9060005260206000209060080201600401548152602001600784815481106109f6577f4e487b7100000000000000000000000000000000000000000000000000000000600052603260045260246000fd5b906000526020600020906008020160050154815260200160078481548110610a47577f4e487b7100000000000000000000000000000000000000000000000000000000600052603260045260246000fd5b906000526020600020906008020160060154815260200160078481548110610a98577f4e487b7100000000000000000000000000000000000000000000000000000000600052603260045260246000fd5b906000526020600020906008020160070154815250600860008381526020019081526020016000206000820151816000019080519060200190610adc929190612e70565b506020820151816001019080519060200190610af9929190612e70565b5060408201518160020155606082015181600301556080820151816004015560a0820151816005015560c0820151816006015560e08201518160070155905050610b5c6040518060600160405280602a8152602001614b40602a91398284611ff8565b80600e60003373ffffffffffffffffffffffffffffffffffffffff1673ffffffffffffffffffffffffffffffffffffffff16815260200190815260200160002081905550610baa6006611e1f565b7fd86eac7d1d8a46252f35ff9a7c3ed14523457622631e63e144e523f03d568567338284604051610bdd93929190613a59565b60405180910390a15050565b610bfa610bf4611f0b565b82612097565b610c39576040517f08c379a0000000000000000000000000000000000000000000000000000000008152600401610c3090613f11565b60405180910390fd5b610c44838383612175565b505050565b610c6483838360405180602001604052806000815250611610565b505050565b6008602052806000526040600020600091509050806000018054610c8c9061423e565b80601f0160208091040260200160405190810160405280929190818152602001828054610cb89061423e565b8015610d055780601f10610cda57610100808354040283529160200191610d05565b820191906000526020600020905b815481529060010190602001808311610ce857829003601f168201915b505050505090806001018054610d1a9061423e565b80601f0160208091040260200160405190810160405280929190818152602001828054610d469061423e565b8015610d935780601f10610d6857610100808354040283529160200191610d93565b820191906000526020600020905b815481529060010190602001808311610d7657829003601f168201915b5050505050908060020154908060030154908060040154908060050154908060060154908060070154905088565b6000806002600084815260200190815260200160002060009054906101000a900473ffffffffffffffffffffffffffffffffffffffff169050600073ffffffffffffffffffffffffffffffffffffffff168173ffffffffffffffffffffffffffffffffffffffff161415610e6a576040517f08c379a0000000000000000000000000000000000000000000000000000000008152600401610e6190613e51565b60405180910390fd5b80915050919050565b6009806000018054610e849061423e565b80601f0160208091040260200160405190810160405280929190818152602001828054610eb09061423e565b8015610efd5780601f10610ed257610100808354040283529160200191610efd565b820191906000526020600020905b815481529060010190602001808311610ee057829003601f168201915b505050505090806001018054610f129061423e565b80601f0160208091040260200160405190810160405280929190818152602001828054610f3e9061423e565b8015610f8b5780601f10610f6057610100808354040283529160200191610f8b565b820191906000526020600020905b815481529060010190602001808311610f6e57829003601f168201915b5050505050908060020154908060030154908060040154905085565b60008073ffffffffffffffffffffffffffffffffffffffff168273ffffffffffffffffffffffffffffffffffffffff161415611018576040517f08c379a000000000000000000000000000000000000000000000000000000000815260040161100f90613e31565b60405180910390fd5b600360008373ffffffffffffffffffffffffffffffffffffffff1673ffffffffffffffffffffffffffffffffffffffff168152602001908152602001600020549050919050565b611067612ef6565b60096040518060a00160405290816000820180546110849061423e565b80601f01602080910402602001604051908101604052809291908181526020018280546110b09061423e565b80156110fd5780601f106110d2576101008083540402835291602001916110fd565b820191906000526020600020905b8154815290600101906020018083116110e057829003601f168201915b505050505081526020016001820180546111169061423e565b80601f01602080910402602001604051908101604052809291908181526020018280546111429061423e565b801561118f5780601f106111645761010080835404028352916020019161118f565b820191906000526020600020905b81548152906001019060200180831161117257829003601f168201915b505050505081526020016002820154815260200160038201548152602001600482015481525050905090565b6060600180546111ca9061423e565b80601f01602080910402602001604051908101604052809291908181526020018280546111f69061423e565b80156112435780601f1061121857610100808354040283529160200191611243565b820191906000526020600020905b81548152906001019060200180831161122657829003601f168201915b5050505050905090565b61125f611258611f0b565b83836123dc565b5050565b60606007805480602002602001604051908101604052809291908181526020016000905b8282101561141a5783829060005260206000209060080201604051806101000160405290816000820180546112bb9061423e565b80601f01602080910402602001604051908101604052809291908181526020018280546112e79061423e565b80156113345780601f1061130957610100808354040283529160200191611334565b820191906000526020600020905b81548152906001019060200180831161131757829003601f168201915b5050505050815260200160018201805461134d9061423e565b80601f01602080910402602001604051908101604052809291908181526020018280546113799061423e565b80156113c65780601f1061139b576101008083540402835291602001916113c6565b820191906000526020600020905b8154815290600101906020018083116113a957829003601f168201915b50505050508152602001600282015481526020016003820154815260200160048201548152602001600582015481526020016006820154815260200160078201548152505081526020019060010190611287565b50505050905090565b61142b612f25565b6000600e60003373ffffffffffffffffffffffffffffffffffffffff1673ffffffffffffffffffffffffffffffffffffffff16815260200190815260200160002054905060008111156115ff5760086000828152602001908152602001600020604051806101000160405290816000820180546114a79061423e565b80601f01602080910402602001604051908101604052809291908181526020018280546114d39061423e565b80156115205780601f106114f557610100808354040283529160200191611520565b820191906000526020600020905b81548152906001019060200180831161150357829003601f168201915b505050505081526020016001820180546115399061423e565b80601f01602080910402602001604051908101604052809291908181526020018280546115659061423e565b80156115b25780601f10611587576101008083540402835291602001916115b2565b820191906000526020600020905b81548152906001019060200180831161159557829003601f168201915b50505050508152602001600282015481526020016003820154815260200160048201548152602001600582015481526020016006820154815260200160078201548152505091505061160d565b611607612f25565b80925050505b90565b61162161161b611f0b565b83612097565b611660576040517f08c379a000000000000000000000000000000000000000000000000000000000815260040161165790613f11565b60405180910390fd5b61166c84848484612549565b50505050565b6060600060086000848152602001908152602001600020604051806101000160405290816000820180546116a59061423e565b80601f01602080910402602001604051908101604052809291908181526020018280546116d19061423e565b801561171e5780601f106116f35761010080835404028352916020019161171e565b820191906000526020600020905b81548152906001019060200180831161170157829003601f168201915b505050505081526020016001820180546117379061423e565b80601f01602080910402602001604051908101604052809291908181526020018280546117639061423e565b80156117b05780601f10611785576101008083540402835291602001916117b0565b820191906000526020600020905b81548152906001019060200180831161179357829003601f168201915b5050505050815260200160028201548152602001600382015481526020016004820154815260200160058201548152602001600682015481526020016007820154815250509050600061180682606001516125a5565b9050600061181783608001516125a5565b905060006118288460a001516125a5565b9050600061186e856000015161183d896125a5565b876020015187878760405160200161185a9695949392919061392b565b604051602081830303815290604052612752565b905060008160405160200161188391906139d0565b6040516020818303038152906040529050809650505050505050919050565b6000600e60003373ffffffffffffffffffffffffffffffffffffffff1673ffffffffffffffffffffffffffffffffffffffff16815260200190815260200160002054905060006008600083815260200190815260200160002090506119b56040518060600160405280603a8152602001614ac6603a91398260000180546119289061423e565b80601f01602080910402602001604051908101604052809291908181526020018280546119549061423e565b80156119a15780601f10611976576101008083540402835291602001916119a1565b820191906000526020600020905b81548152906001019060200180831161198457829003601f168201915b505050505083600301548460050154612910565b611a8d6040518060400160405280601c81526020017f426f73732068617320487020616e642041747461636b44616d61676500000000815250600960000180546119fe9061423e565b80601f0160208091040260200160405190810160405280929190818152602001828054611a2a9061423e565b8015611a775780601f10611a4c57610100808354040283529160200191611a77565b820191906000526020600020905b815481529060010190602001808311611a5a57829003601f168201915b5050505050600960020154600960040154612910565b6000816003015411611ad4576040517f08c379a0000000000000000000000000000000000000000000000000000000008152600401611acb90613e71565b60405180910390fd5b600060096002015411611b1c576040517f08c379a0000000000000000000000000000000000000000000000000000000008152600401611b1390613ef1565b60405180910390fd5b80600501546009600201541015611b3d576000600960020181905550611b5c565b8060050154600960020154611b529190614154565b6009600201819055505b60096004015481600301541015611b7c5760008160030181905550611b9a565b6009600401548160030154611b919190614154565b81600301819055505b611bc0604051806060016040528060288152602001614a9e6028913982600301546129b2565b611be7604051806060016040528060248152602001614a7a602491396009600201546129b2565b7f4739484bc7f9ae43a966305092b23a31a4d2fc34cb9a2b4479740db9986d21bd336009600201548360030154604051611c2393929190613a59565b60405180910390a15050565b6000600560008473ffffffffffffffffffffffffffffffffffffffff1673ffffffffffffffffffffffffffffffffffffffff16815260200190815260200160002060008373ffffffffffffffffffffffffffffffffffffffff1673ffffffffffffffffffffffffffffffffffffffff16815260200190815260200160002060009054906101000a900460ff16905092915050565b600e6020528060005260406000206000915090505481565b611d7784848484604051602401611cf59493929190613aef565b6040516020818303038152906040527f9fd009f5000000000000000000000000000000000000000000000000000000007bffffffffffffffffffffffffffffffffffffffffffffffffffffffff19166020820180517bffffffffffffffffffffffffffffffffffffffffffffffffffffffff8381831617835250505050612a4e565b50505050565b611e1984848484604051602401611d979493929190613b49565b6040516020818303038152906040527f8d142cdd000000000000000000000000000000000000000000000000000000007bffffffffffffffffffffffffffffffffffffffffffffffffffffffff19166020820180517bffffffffffffffffffffffffffffffffffffffffffffffffffffffff8381831617835250505050612a4e565b50505050565b6001816000016000828254019250508190555050565b60007f01ffc9a7000000000000000000000000000000000000000000000000000000007bffffffffffffffffffffffffffffffffffffffffffffffffffffffff1916827bffffffffffffffffffffffffffffffffffffffffffffffffffffffff1916149050919050565b60008073ffffffffffffffffffffffffffffffffffffffff166002600084815260200190815260200160002060009054906101000a900473ffffffffffffffffffffffffffffffffffffffff1673ffffffffffffffffffffffffffffffffffffffff1614159050919050565b600033905090565b816004600083815260200190815260200160002060006101000a81548173ffffffffffffffffffffffffffffffffffffffff021916908373ffffffffffffffffffffffffffffffffffffffff160217905550808273ffffffffffffffffffffffffffffffffffffffff16611f8683610dc1565b73ffffffffffffffffffffffffffffffffffffffff167f8c5be1e5ebec7d5bd14f71427d1e84f3dd0314c0f7b2291e5b200ac8c7c3b92560405160405180910390a45050565b600081600001549050919050565b611ff4828260405180602001604052806000815250612a77565b5050565b61209283838360405160240161201093929190613d13565b6040516020818303038152906040527f969cdd03000000000000000000000000000000000000000000000000000000007bffffffffffffffffffffffffffffffffffffffffffffffffffffffff19166020820180517bffffffffffffffffffffffffffffffffffffffffffffffffffffffff8381831617835250505050612a4e565b505050565b60006120a282611e9f565b6120e1576040517f08c379a00000000000000000000000000000000000000000000000000000000081526004016120d890613df1565b60405180910390fd5b60006120ec83610dc1565b90508073ffffffffffffffffffffffffffffffffffffffff168473ffffffffffffffffffffffffffffffffffffffff16148061212e575061212d8185611c2f565b5b8061216c57508373ffffffffffffffffffffffffffffffffffffffff16612154846105a1565b73ffffffffffffffffffffffffffffffffffffffff16145b91505092915050565b8273ffffffffffffffffffffffffffffffffffffffff1661219582610dc1565b73ffffffffffffffffffffffffffffffffffffffff16146121eb576040517f08c379a00000000000000000000000000000000000000000000000000000000081526004016121e290613d71565b60405180910390fd5b600073ffffffffffffffffffffffffffffffffffffffff168273ffffffffffffffffffffffffffffffffffffffff16141561225b576040517f08c379a000000000000000000000000000000000000000000000000000000000815260040161225290613db1565b60405180910390fd5b612266838383612ad2565b612271600082611f13565b6001600360008573ffffffffffffffffffffffffffffffffffffffff1673ffffffffffffffffffffffffffffffffffffffff16815260200190815260200160002060008282546122c19190614154565b925050819055506001600360008473ffffffffffffffffffffffffffffffffffffffff1673ffffffffffffffffffffffffffffffffffffffff16815260200190815260200160002060008282546123189190614073565b92505081905550816002600083815260200190815260200160002060006101000a81548173ffffffffffffffffffffffffffffffffffffffff021916908373ffffffffffffffffffffffffffffffffffffffff160217905550808273ffffffffffffffffffffffffffffffffffffffff168473ffffffffffffffffffffffffffffffffffffffff167fddf252ad1be2c89b69c2b068fc378daa952ba7f163c4a11628f55a4df523b3ef60405160405180910390a46123d7838383612ad7565b505050565b8173ffffffffffffffffffffffffffffffffffffffff168373ffffffffffffffffffffffffffffffffffffffff16141561244b576040517f08c379a000000000000000000000000000000000000000000000000000000000815260040161244290613dd1565b60405180910390fd5b80600560008573ffffffffffffffffffffffffffffffffffffffff1673ffffffffffffffffffffffffffffffffffffffff16815260200190815260200160002060008473ffffffffffffffffffffffffffffffffffffffff1673ffffffffffffffffffffffffffffffffffffffff16815260200190815260200160002060006101000a81548160ff0219169083151502179055508173ffffffffffffffffffffffffffffffffffffffff168373ffffffffffffffffffffffffffffffffffffffff167f17307eab39ab6107e8899845ad3d59bd9653f200f220920489ca2b5937696c318360405161253c9190613ab2565b60405180910390a3505050565b612554848484612175565b61256084848484612adc565b61259f576040517f08c379a000000000000000000000000000000000000000000000000000000000815260040161259690613d51565b60405180910390fd5b50505050565b606060008214156125ed576040518060400160405280600181526020017f3000000000000000000000000000000000000000000000000000000000000000815250905061274d565b600082905060005b6000821461261f578080612608906142a1565b915050600a8261261891906140c9565b91506125f5565b60008167ffffffffffffffff811115612661577f4e487b7100000000000000000000000000000000000000000000000000000000600052604160045260246000fd5b6040519080825280601f01601f1916602001820160405280156126935781602001600182028036833780820191505090505b5090505b60008514612746576001826126ac9190614154565b9150600a856126bb91906142ea565b60306126c79190614073565b60f81b818381518110612703577f4e487b7100000000000000000000000000000000000000000000000000000000600052603260045260246000fd5b60200101907effffffffffffffffffffffffffffffffffffffffffffffffffffffffffffff1916908160001a905350600a8561273f91906140c9565b9450612697565b8093505050505b919050565b6060600082519050600081141561277b576040518060200160405280600081525091505061290b565b6000600360028361278c9190614073565b61279691906140c9565b60046127a291906140fa565b905060006020826127b39190614073565b67ffffffffffffffff8111156127f2577f4e487b7100000000000000000000000000000000000000000000000000000000600052604160045260246000fd5b6040519080825280601f01601f1916602001820160405280156128245781602001600182028036833780820191505090505b5090506000604051806060016040528060408152602001614b00604091399050600181016020830160005b868110156128c85760038101905062ffffff818a015116603f8160121c168401518060081b905060ff603f83600c1c1686015116810190508060081b905060ff603f8360061c1686015116810190508060081b905060ff603f831686015116810190508060e01b9050808452600484019350505061284f565b5060038606600181146128e257600281146128f2576128fd565b613d3d60f01b60028303526128fd565b603d60f81b60018303525b508484525050819450505050505b919050565b6129ac8484848460405160240161292a9493929190613ba3565b6040516020818303038152906040527fd5cf17d0000000000000000000000000000000000000000000000000000000007bffffffffffffffffffffffffffffffffffffffffffffffffffffffff19166020820180517bffffffffffffffffffffffffffffffffffffffffffffffffffffffff8381831617835250505050612a4e565b50505050565b612a4a82826040516024016129c8929190613ce3565b6040516020818303038152906040527f9710a9d0000000000000000000000000000000000000000000000000000000007bffffffffffffffffffffffffffffffffffffffffffffffffffffffff19166020820180517bffffffffffffffffffffffffffffffffffffffffffffffffffffffff8381831617835250505050612a4e565b5050565b60008151905060006a636f6e736f6c652e6c6f679050602083016000808483855afa5050505050565b612a818383612c73565b612a8e6000848484612adc565b612acd576040517f08c379a0000000000000000000000000000000000000000000000000000000008152600401612ac490613d51565b60405180910390fd5b505050565b505050565b505050565b6000612afd8473ffffffffffffffffffffffffffffffffffffffff16612e4d565b15612c66578373ffffffffffffffffffffffffffffffffffffffff1663150b7a02612b26611f0b565b8786866040518563ffffffff1660e01b8152600401612b489493929190613a0d565b602060405180830381600087803b158015612b6257600080fd5b505af1925050508015612b9357506040513d601f19601f82011682018060405250810190612b909190613228565b60015b612c16573d8060008114612bc3576040519150601f19603f3d011682016040523d82523d6000602084013e612bc8565b606091505b50600081511415612c0e576040517f08c379a0000000000000000000000000000000000000000000000000000000008152600401612c0590613d51565b60405180910390fd5b805181602001fd5b63150b7a0260e01b7bffffffffffffffffffffffffffffffffffffffffffffffffffffffff1916817bffffffffffffffffffffffffffffffffffffffffffffffffffffffff191614915050612c6b565b600190505b949350505050565b600073ffffffffffffffffffffffffffffffffffffffff168273ffffffffffffffffffffffffffffffffffffffff161415612ce3576040517f08c379a0000000000000000000000000000000000000000000000000000000008152600401612cda90613e91565b60405180910390fd5b612cec81611e9f565b15612d2c576040517f08c379a0000000000000000000000000000000000000000000000000000000008152600401612d2390613d91565b60405180910390fd5b612d3860008383612ad2565b6001600360008473ffffffffffffffffffffffffffffffffffffffff1673ffffffffffffffffffffffffffffffffffffffff1681526020019081526020016000206000828254612d889190614073565b92505081905550816002600083815260200190815260200160002060006101000a81548173ffffffffffffffffffffffffffffffffffffffff021916908373ffffffffffffffffffffffffffffffffffffffff160217905550808273ffffffffffffffffffffffffffffffffffffffff16600073ffffffffffffffffffffffffffffffffffffffff167fddf252ad1be2c89b69c2b068fc378daa952ba7f163c4a11628f55a4df523b3ef60405160405180910390a4612e4960008383612ad7565b5050565b6000808273ffffffffffffffffffffffffffffffffffffffff163b119050919050565b828054612e7c9061423e565b90600052602060002090601f016020900481019282612e9e5760008555612ee5565b82601f10612eb757805160ff1916838001178555612ee5565b82800160010185558215612ee5579182015b82811115612ee4578251825591602001919060010190612ec9565b5b509050612ef29190612f6a565b5090565b6040518060a0016040528060608152602001606081526020016000815260200160008152602001600081525090565b60405180610100016040528060608152602001606081526020016000815260200160008152602001600081526020016000815260200160008152602001600081525090565b5b80821115612f83576000816000905550600101612f6b565b5090565b6000612f9a612f9584613fb5565b613f90565b905082815260208101848484011115612fb257600080fd5b612fbd8482856141fc565b509392505050565b600081359050612fd481614a1d565b92915050565b600081359050612fe981614a34565b92915050565b600081359050612ffe81614a4b565b92915050565b60008151905061301381614a4b565b92915050565b600082601f83011261302a57600080fd5b813561303a848260208601612f87565b91505092915050565b60008135905061305281614a62565b92915050565b60006020828403121561306a57600080fd5b600061307884828501612fc5565b91505092915050565b6000806040838503121561309457600080fd5b60006130a285828601612fc5565b92505060206130b385828601612fc5565b9150509250929050565b6000806000606084860312156130d257600080fd5b60006130e086828701612fc5565b93505060206130f186828701612fc5565b925050604061310286828701613043565b9150509250925092565b6000806000806080858703121561312257600080fd5b600061313087828801612fc5565b945050602061314187828801612fc5565b935050604061315287828801613043565b925050606085013567ffffffffffffffff81111561316f57600080fd5b61317b87828801613019565b91505092959194509250565b6000806040838503121561319a57600080fd5b60006131a885828601612fc5565b92505060206131b985828601612fda565b9150509250929050565b600080604083850312156131d657600080fd5b60006131e485828601612fc5565b92505060206131f585828601613043565b9150509250929050565b60006020828403121561321157600080fd5b600061321f84828501612fef565b91505092915050565b60006020828403121561323a57600080fd5b600061324884828501613004565b91505092915050565b60006020828403121561326357600080fd5b600061327184828501613043565b91505092915050565b6000613286838361379f565b905092915050565b61329781614188565b82525050565b60006132a882613ff6565b6132b28185614024565b9350836020820285016132c485613fe6565b8060005b8581101561330057848403895281516132e1858261327a565b94506132ec83614017565b925060208a019950506001810190506132c8565b50829750879550505050505092915050565b61331b8161419a565b82525050565b600061332c82614001565b6133368185614035565b935061334681856020860161420b565b61334f816143d7565b840191505092915050565b60006133658261400c565b61336f8185614046565b935061337f81856020860161420b565b613388816143d7565b840191505092915050565b600061339e8261400c565b6133a88185614057565b93506133b881856020860161420b565b6133c1816143d7565b840191505092915050565b60006133d78261400c565b6133e18185614068565b93506133f181856020860161420b565b80840191505092915050565b600061340a600983614068565b9150613415826143e8565b600982019050919050565b600061342d603283614057565b915061343882614411565b604082019050919050565b6000613450602583614057565b915061345b82614460565b604082019050919050565b6000613473601c83614057565b915061347e826144af565b602082019050919050565b6000613496606883614068565b91506134a1826144d8565b606882019050919050565b60006134b9600e83614068565b91506134c482614573565b600e82019050919050565b60006134dc602483614057565b91506134e78261459c565b604082019050919050565b60006134ff601983614057565b915061350a826145eb565b602082019050919050565b6000613522602c83614057565b915061352d82614614565b604082019050919050565b6000613545603883614057565b915061355082614663565b604082019050919050565b6000613568602a83614057565b9150613573826146b2565b604082019050919050565b600061358b602983614057565b915061359682614701565b604082019050919050565b60006135ae602c83614057565b91506135b982614750565b604082019050919050565b60006135d1600483614068565b91506135dc8261479f565b600482019050919050565b60006135f4602083614057565b91506135ff826147c8565b602082019050919050565b6000613617602c83614057565b9150613622826147f1565b604082019050919050565b600061363a600a83614068565b915061364582614840565b600a82019050919050565b600061365d602183614057565b915061366882614869565b604082019050919050565b6000613680601d83614068565b915061368b826148b8565b601d82019050919050565b60006136a3602283614057565b91506136ae826148e1565b604082019050919050565b60006136c6603183614057565b91506136d182614930565b604082019050919050565b60006136e9603d83614068565b91506136f48261497f565b603d82019050919050565b600061370c602d83614068565b9150613717826149ce565b602d82019050919050565b600060a083016000830151848203600086015261373f828261335a565b91505060208301518482036020860152613759828261335a565b915050604083015161376e604086018261390d565b506060830151613781606086018261390d565b506080830151613794608086018261390d565b508091505092915050565b60006101008301600083015184820360008601526137bd828261335a565b915050602083015184820360208601526137d7828261335a565b91505060408301516137ec604086018261390d565b5060608301516137ff606086018261390d565b506080830151613812608086018261390d565b5060a083015161382560a086018261390d565b5060c083015161383860c086018261390d565b5060e083015161384b60e086018261390d565b508091505092915050565b6000610100830160008301518482036000860152613874828261335a565b9150506020830151848203602086015261388e828261335a565b91505060408301516138a3604086018261390d565b5060608301516138b6606086018261390d565b5060808301516138c9608086018261390d565b5060a08301516138dc60a086018261390d565b5060c08301516138ef60c086018261390d565b5060e083015161390260e086018261390d565b508091505092915050565b613916816141f2565b82525050565b613925816141f2565b82525050565b60006139368261362d565b915061394282896133cc565b915061394d826133fd565b915061395982886133cc565b915061396482613489565b915061397082876133cc565b915061397b826136dc565b915061398782866133cc565b9150613992826134ac565b915061399e82856133cc565b91506139a9826136ff565b91506139b582846133cc565b91506139c0826135c4565b9150819050979650505050505050565b60006139db82613673565b91506139e782846133cc565b915081905092915050565b6000602082019050613a07600083018461328e565b92915050565b6000608082019050613a22600083018761328e565b613a2f602083018661328e565b613a3c604083018561391c565b8181036060830152613a4e8184613321565b905095945050505050565b6000606082019050613a6e600083018661328e565b613a7b602083018561391c565b613a88604083018461391c565b949350505050565b60006020820190508181036000830152613aaa818461329d565b905092915050565b6000602082019050613ac76000830184613312565b92915050565b60006020820190508181036000830152613ae78184613393565b905092915050565b60006080820190508181036000830152613b098187613393565b90508181036020830152613b1d8186613393565b90508181036040830152613b318185613393565b9050613b40606083018461391c565b95945050505050565b60006080820190508181036000830152613b638187613393565b90508181036020830152613b778186613393565b9050613b86604083018561391c565b8181036060830152613b988184613393565b905095945050505050565b60006080820190508181036000830152613bbd8187613393565b90508181036020830152613bd18186613393565b9050613be0604083018561391c565b613bed606083018461391c565b95945050505050565b600060a0820190508181036000830152613c108188613393565b90508181036020830152613c248187613393565b9050613c33604083018661391c565b613c40606083018561391c565b613c4d608083018461391c565b9695505050505050565b6000610100820190508181036000830152613c72818b613393565b90508181036020830152613c86818a613393565b9050613c95604083018961391c565b613ca2606083018861391c565b613caf608083018761391c565b613cbc60a083018661391c565b613cc960c083018561391c565b613cd660e083018461391c565b9998505050505050505050565b60006040820190508181036000830152613cfd8185613393565b9050613d0c602083018461391c565b9392505050565b60006060820190508181036000830152613d2d8186613393565b9050613d3c602083018561391c565b613d49604083018461391c565b949350505050565b60006020820190508181036000830152613d6a81613420565b9050919050565b60006020820190508181036000830152613d8a81613443565b9050919050565b60006020820190508181036000830152613daa81613466565b9050919050565b60006020820190508181036000830152613dca816134cf565b9050919050565b60006020820190508181036000830152613dea816134f2565b9050919050565b60006020820190508181036000830152613e0a81613515565b9050919050565b60006020820190508181036000830152613e2a81613538565b9050919050565b60006020820190508181036000830152613e4a8161355b565b9050919050565b60006020820190508181036000830152613e6a8161357e565b9050919050565b60006020820190508181036000830152613e8a816135a1565b9050919050565b60006020820190508181036000830152613eaa816135e7565b9050919050565b60006020820190508181036000830152613eca8161360a565b9050919050565b60006020820190508181036000830152613eea81613650565b9050919050565b60006020820190508181036000830152613f0a81613696565b9050919050565b60006020820190508181036000830152613f2a816136b9565b9050919050565b60006020820190508181036000830152613f4b8184613722565b905092915050565b60006020820190508181036000830152613f6d8184613856565b905092915050565b6000602082019050613f8a600083018461391c565b92915050565b6000613f9a613fab565b9050613fa68282614270565b919050565b6000604051905090565b600067ffffffffffffffff821115613fd057613fcf6143a8565b5b613fd9826143d7565b9050602081019050919050565b6000819050602082019050919050565b600081519050919050565b600081519050919050565b600081519050919050565b6000602082019050919050565b600082825260208201905092915050565b600082825260208201905092915050565b600082825260208201905092915050565b600082825260208201905092915050565b600081905092915050565b600061407e826141f2565b9150614089836141f2565b9250827fffffffffffffffffffffffffffffffffffffffffffffffffffffffffffffffff038211156140be576140bd61431b565b5b828201905092915050565b60006140d4826141f2565b91506140df836141f2565b9250826140ef576140ee61434a565b5b828204905092915050565b6000614105826141f2565b9150614110836141f2565b9250817fffffffffffffffffffffffffffffffffffffffffffffffffffffffffffffffff04831182151516156141495761414861431b565b5b828202905092915050565b600061415f826141f2565b915061416a836141f2565b92508282101561417d5761417c61431b565b5b828203905092915050565b6000614193826141d2565b9050919050565b60008115159050919050565b60007fffffffff0000000000000000000000000000000000000000000000000000000082169050919050565b600073ffffffffffffffffffffffffffffffffffffffff82169050919050565b6000819050919050565b82818337600083830152505050565b60005b8381101561422957808201518184015260208101905061420e565b83811115614238576000848401525b50505050565b6000600282049050600182168061425657607f821691505b6020821081141561426a57614269614379565b5b50919050565b614279826143d7565b810181811067ffffffffffffffff82111715614298576142976143a8565b5b80604052505050565b60006142ac826141f2565b91507fffffffffffffffffffffffffffffffffffffffffffffffffffffffffffffffff8214156142df576142de61431b565b5b600182019050919050565b60006142f5826141f2565b9150614300836141f2565b9250826143105761430f61434a565b5b828206905092915050565b7f4e487b7100000000000000000000000000000000000000000000000000000000600052601160045260246000fd5b7f4e487b7100000000000000000000000000000000000000000000000000000000600052601260045260246000fd5b7f4e487b7100000000000000000000000000000000000000000000000000000000600052602260045260246000fd5b7f4e487b7100000000000000000000000000000000000000000000000000000000600052604160045260246000fd5b6000601f19601f8301169050919050565b7f2d2d204e465420233a0000000000000000000000000000000000000000000000600082015250565b7f4552433732313a207472616e7366657220746f206e6f6e20455243373231526560008201527f63656976657220696d706c656d656e7465720000000000000000000000000000602082015250565b7f4552433732313a207472616e736665722066726f6d20696e636f72726563742060008201527f6f776e6572000000000000000000000000000000000000000000000000000000602082015250565b7f4552433732313a20746f6b656e20616c7265616479206d696e74656400000000600082015250565b7f222c20226465736372697074696f6e223a20225468697320697320616e204e4660008201527f542074686174206c6574732070656f706c652063686f6f73652061207072656660208201527f6572656420706572736f6e6120746f20706c617920612067616d65222c20226960408201527f6d616765223a2022000000000000000000000000000000000000000000000000606082015250565b7f2c20226d61785f76616c7565223a000000000000000000000000000000000000600082015250565b7f4552433732313a207472616e7366657220746f20746865207a65726f2061646460008201527f7265737300000000000000000000000000000000000000000000000000000000602082015250565b7f4552433732313a20617070726f766520746f2063616c6c657200000000000000600082015250565b7f4552433732313a206f70657261746f7220717565727920666f72206e6f6e657860008201527f697374656e7420746f6b656e0000000000000000000000000000000000000000602082015250565b7f4552433732313a20617070726f76652063616c6c6572206973206e6f74206f7760008201527f6e6572206e6f7220617070726f76656420666f7220616c6c0000000000000000602082015250565b7f4552433732313a2062616c616e636520717565727920666f7220746865207a6560008201527f726f206164647265737300000000000000000000000000000000000000000000602082015250565b7f4552433732313a206f776e657220717565727920666f72206e6f6e657869737460008201527f656e7420746f6b656e0000000000000000000000000000000000000000000000602082015250565b7f4572726f723a20636861726163746572206d757374206861766520487020746f60008201527f2061747461636b20626f73730000000000000000000000000000000000000000602082015250565b7f7d205d7d00000000000000000000000000000000000000000000000000000000600082015250565b7f4552433732313a206d696e7420746f20746865207a65726f2061646472657373600082015250565b7f4552433732313a20617070726f76656420717565727920666f72206e6f6e657860008201527f697374656e7420746f6b656e0000000000000000000000000000000000000000602082015250565b7f7b226e616d65223a202200000000000000000000000000000000000000000000600082015250565b7f4552433732313a20617070726f76616c20746f2063757272656e74206f776e6560008201527f7200000000000000000000000000000000000000000000000000000000000000602082015250565b7f646174613a6170706c69636174696f6e2f6a736f6e3b6261736536342c000000600082015250565b7f4572726f723a20426f7373206d757374206861766520487020746f206174746160008201527f636b000000000000000000000000000000000000000000000000000000000000602082015250565b7f4552433732313a207472616e736665722063616c6c6572206973206e6f74206f60008201527f776e6572206e6f7220617070726f766564000000000000000000000000000000602082015250565b7f222c202261747472696275746573223a205b207b202274726169745f7479706560008201527f223a20224865616c746820506f696e7473222c202276616c7565223a20000000602082015250565b7f7d2c207b202274726169745f74797065223a202241747461636b2044616d616760008201527f65222c202276616c7565223a2000000000000000000000000000000000000000602082015250565b614a2681614188565b8114614a3157600080fd5b50565b614a3d8161419a565b8114614a4857600080fd5b50565b614a54816141a6565b8114614a5f57600080fd5b50565b614a6b816141f2565b8114614a7657600080fd5b5056fe426f737320626162792061747461636b20706c617965722e204e657720426f7373204870506c617965722061747461636b20626f737320626162792e204e657720706c617965722773204870706c617965722077697468206368617261637465722061626f757420746f2061747461636b20772f252048702c2061747461636b44616d6167654142434445464748494a4b4c4d4e4f505152535455565758595a6162636465666768696a6b6c6d6e6f707172737475767778797a303132333435363738392b2f4d696e746564204e4654207769746820746f6b656e496420616e6420617474726962757465496e646578a2646970667358221220c1c43e4636b86fd3f4b9e54d09c3de57ab653ffbb7b4b1bed70a14a40d3cecb964736f6c63430008010033446f6e6520696e697469616c697a696e6720426f737320776974682048702c20496d616765557269205375636365737366756c6c7920696e697469616c697a652077697468206e616d652c20696d61676555726c2c2068702e2e",
  "linkReferences": {},
  "deployedLinkReferences": {}
}